:020000004D2A87
:10000800FF00030E8301B8000A08B9008A017008CE
:10001800A3007108A2007208A1007308A0000C1CBC
:1000280031280C10FC308F0018308E003008F0009A
:100038003108F1003208F2003308F300F00A03191E
:10004800F10A0319F20A0319F30A7008B0007108DB
:10005800B1007208B2007308B3008C1C34288C10ED
:100068000B080239F0000030F1000030F2000030D7
:10007800F3000030F105F205F3057008710472040D
:10008800730403194928FD308B052308F000220862
:10009800F1002108F2002008F30039088A00380E20
:0800A8008300FF0E7F0E09002A
:1000B000831203132230FC00F801F901FA01FB015D
:1000C000FC0303198E280310FB0CFA0CF90CF80C36
:1000D000F30CF20CF10CF00C031C6028FC03031968
:1000E00080287408F80775080318750FF907760853
:1000F0000318760FFA0777080318770FFB076428B1
:100100007408F80775080318750FF90776080318BF
:0E011000760FFA0777080318770FFB07080031
:10011E008312031307150000FB308705000008004B
:10012E008312031387150000F730870500000800BF
:10013E00831203134F08F000F101F201F3010230B4
:10014E00F4000830F5000030F6000030F7005820BB
:10015E0010307005D00021307105D10002307205CB
:10016E00D20000307305D3004F08F000F101F20108
:10017E00F3012030F4008030F5000030F60000303E
:10018E00F70058204030F0058430F1050830F205B4
:10019E000030F3055008F0045108F1045208F2043F
:1001AE005308F3040130F4000130F5000130F6007D
:1001BE000030F70058207208F4007308F500F601BD
:0801CE00F7017408F0000800BD
:1001D60083120313CC010030CD000030CE004A0854
:1001E600CF009F207008CA004B08CF009F207008E0
:1001F600CB004A08CD00CE014D08CE00CD017008D7
:10020600CD040030CE04CC014C080F3C031C33292E
:100216004C08F4000130F0000030F1000030F2002C
:100226000030F300740803191F29F00DF10DF20DCB
:10023600F30D7010FF3E16294D08F0054E08F10526
:100246000030F205F3057008710472047304031993
:100256002E2987143029FD3087058F20CC0A0729DF
:0402660097200800D5
:0E026A008312031337088A003608820008004A
:1002780083120313F801F9011030FC00710DF80D19
:10028800F90D7408F8027508031C750FF9020318B4
:1002980054297408F80775080318750FF90703102F
:0A02A800F00DF10DFC0B42290800D7
:1002B200831203134808263E84000008CA00490836
:0C02C200263E84000008CB00EB20080062
:0E02CE008B17BF308316031381050B16080033
:1002DC0001308312031390000C10FC308F00183087
:0C02EC008E0083160C14C0308B0008003C
:1002F8000A3083120313F4000030F5003A08F000C6
:100308003B08F1003C217808F0007908F1007008FA
:10031800BE000A30F4000030F5003A08F0003B084F
:10032800F1003C217008C4007108C5004408BA00F7
:100338004508BB000A30F4000030F5004408F0001E
:100348004508F1003C217808F0007908F1007008B0
:10035800BF000A30F4000030F5004408F0004508FA
:10036800F1003C217008BA007108BB000A30F400A3
:100378000030F5003C217808F0007908F100700899
:10038800C6007108C7004608C0000A30F4000030F3
:10039800F5003C08F0003D08F1003C217808F00029
:1003A8007908F1007008C1000A30F4000030F50047
:1003B8003C08F0003D08F1003C217008C4007108B9
:1003C800C5004408BC004508BD000A30F4000030F0
:1003D800F5004408F0004508F1003C217808F000D9
:1003E8007908F1007008C2000A30F4000030F50006
:1003F8004408F0004508F1003C217008BC00710871
:10040800BD000A30F4000030F5003C217808F00007
:100418007908F1007008C3004608C8007008C900D0
:10042800592107160230FC004B30FD00FD0B1A2A3B
:10043800FC0B1A2AEF3087053F08C8004208C9009C
:10044800592187160230FC004B30FD00FD0B2A2A8B
:10045800FC0B2A2ADF3087053E08C8004108C9007E
:10046800592107170230FC004B30FD00FD0B3A2ADA
:0A047800FC0B3A2ABF30870508008C
:1004820035218A110A128000840AB60A0319B70AB2
:08049200F003031D412A0800DC
:10049A008022831603178801890183128713881320
:1004AA00831603138701831287016E216721831242
:1004BA003408BA003508BB002408BC002508BD0072
:0604CA007C215C2A672A78
:1005000024308400123083120313F0006D30B600E3
:080510000230B700412208008F
:0404DA006F34003447
:1004DE00C034F934A434B034993492348234F834BC
:0404EE008034903492
:0804F200003400340034003432
:0404FA000034003496
:04400E00F22F000786
:00000001FF
