:02000000B92C19
:10000800FF00030E8301B2000A08B3008A017008DA
:10001800A4007108A3007208A2007308A1000C1CB8
:1000280031280C10FC308F0018308E002E08F0009C
:100038002F08F1003008F2003108F300F00A031924
:10004800F10A0319F20A0319F30A7008AE007108DD
:10005800AF007208B0007308B1000B080239F00055
:100068000030F1000030F2000030F3000030F105FC
:10007800F205F3057008710472047304031950281B
:10008800FD308605FE308905F7308505A80A031975
:10009800A90A1215FD308B050C080239F000003052
:1000A800F1000030F2000030F3000030F105F205F5
:1000B800F305700871047204730403197128861417
:1000C800091485152708831692008312A80A0319B4
:1000D800A90AFB309205FD308C052408F00023089E
:1000E800F1002208F2002108F30033088A00320EDA
:0800F8008300FF0E7F0E0900DA
:10010000831203132230FC00F801F901FA01FB010C
:10011000FC030319B6280310FB0CFA0CF90CF80CBD
:10012000F30CF20CF10CF00C031C8828FC030319EF
:10013000A8287408F80775080318750FF9077608DA
:100140000318760FFA0777080318770FFB078C2838
:100150007408F80775080318750FF907760803186F
:0E016000760FFA0777080318770FFB070800E1
:10016E008312031307150000FB30870500000800FB
:10017E008312031387150000F7308705000008006F
:10018E00831203135208F000F101F201F301023061
:10019E00F4000830F5000030F6000030F700802043
:1001AE0010307005D30021307105D4000230720575
:1001BE00D50000307305D6005208F000F101F201AF
:1001CE00F3012030F4008030F5000030F6000030EE
:1001DE00F70080204030F0058430F1050830F2053C
:1001EE000030F3055308F0045408F1045508F204E6
:1001FE005608F3040130F4000130F5000130F6002A
:10020E000030F70080207208F4007308F500F60144
:08021E00F7017408F00008006C
:1002260083120313CF010030D0000030D1004D08F7
:10023600D200C7207008CD004E08D200C720700833
:10024600CE004D08D000D1015008D100D001700871
:10025600D0040030D104CF014F080F3C031C5B29AA
:100266004F08F4000130F0000030F1000030F200D9
:100276000030F300740803194729F00DF10DF20D53
:10028600F30D7010FF3E3E295008F0055108F105A8
:100296000030F205F3057008710472047304031943
:1002A600562987145829FD308705B720CF0A2F29EC
:0402B600BF2008005D
:0E02BA00831203132D088A002C08820008000E
:1002C800831203134B08D63EF00004300318013E96
:1002D800F1007008AC007108AD005D218A110A12A6
:1002E800CD004C08D63EF00004300318013EF10062
:1002F8007008AC007108AD005D218A110A12CE00A9
:0403080013210800B5
:10030C0083120313F801F9011030FC00710DF80D84
:10031C00F90D7408F8027508031C750FF90203181F
:10032C009E297408F80775080318750FF907031050
:0A033C00F00DF10DFC0B8C290800F8
:1003460083120313FB01FA01F901F801A001730DF1
:10035600F80D7408F8027508031C750FF902760883
:10036600031C760FFA027708031C770FFB020001C5
:10037600031C0130A002F30D0730FC00730DF80DCD
:10038600F90DFA0DFB0DA00D7408731CDC29F8029B
:100396007508031C750FF9027608031C760FFA021E
:1003A6007708031C770FFB020001031C0130A00233
:1003B600ED29F80775080318750FF907760803186D
:1003C600760FFA0777080318770FFB070001031863
:1003D6000130A007F30DFC0BC129720DF80DF90DC4
:1003E600FA0DFB0DA00D7408731C0B2AF802750894
:1003F600031C750FF9027608031C760FFA027708BC
:10040600031C770FFB020001031C0130A0021C2A0B
:10041600F80775080318750FF90776080318760F9D
:10042600FA0777080318770FFB0700010318013056
:10043600A007F20D0730FC00720DF80DF90DFA0D4C
:10044600FB0DA00D7408721C3A2AF8027508031CED
:10045600750FF9027608031C760FFA027708031C5B
:10046600770FFB020001031C0130A0024B2AF8079C
:1004760075080318750FF90776080318760FFA073B
:1004860077080318770FFB07000103180130A00750
:10049600F20DFC0B1F2A710DF80DF90DFA0DFB0D6F
:1004A600A00D7408721C692AF8027508031C750FE2
:1004B600F9027608031C760FFA027708031C770FF9
:1004C600FB020001031C0130A0027A2AF807750816
:1004D6000318750FF90776080318760FFA077708D9
:1004E6000318770FFB07000103180130A007F10D71
:1004F6000730FC00710DF80DF90DFA0DFB0DA00D7E
:100506007408711C982AF8027508031C750FF90205
:100516007608031C760FFA027708031C770FFB0296
:100526000001031C0130A002A92AF8077508031868
:10053600750FF90776080318760FFA077708031878
:10054600770FFB07000103180130A007F10DFC0B24
:100556007D2A700DF80DF90DFA0DFB0DA00D74082E
:10056600711CC72AF8027508031C750FF902760874
:10057600031C760FFA027708031C770FFB020001B3
:10058600031C0130A002D82AF80775080318750F56
:10059600F90776080318760FFA0777080318770F16
:1005A600FB07000103180130A007F00D0730FC001F
:1005B600700DF80DF90DFA0DFB0DA00D7408701CE9
:1005C600F62AF8027508031C750FF9027608031C53
:1005D600760FFA027708031C770FFB020001031C53
:1005E6000130A002072BF80775080318750FF907E5
:1005F60076080318760FFA0777080318770FFB07B4
:10060600000103180130A007F00DFC0BDB2A70185F
:100616001A2B7408F80775080318750FF90776087A
:100626000318760FFA0777080318770FFB070800F9
:100636000A3083120313F4000030F5003D08F00081
:100646003E08F10086217808F0007908F10070086C
:10065600C1000A30F4000030F5003D08F0003E0805
:10066600F10086217008C7007108C8004708BD0060
:100676004808BE000A30F4000030F5004708F000D4
:100686004808F10086217808F0007908F100700822
:10069600C2000A30F4000030F5004708F0004808B0
:1006A600F10086217008BD007108BE000A30F40012
:1006B6000030F50086217808F0007908F10070080E
:1006C600C9007108CA004908C3000A30F4000030A6
:1006D600F5003F08F0004008F10086217808F00098
:1006E6007908F1007008C4000A30F4000030F50003
:1006F6003F08F0004008F10086217008C700710825
:10070600C8004708BF004808C0000A30F40000309F
:10071600F5004708F0004808F10086217808F00047
:100726007908F1007008C5000A30F4000030F500C1
:100736004708F0004808F10086217008BF007108DC
:10074600C0000A30F4000030F50086217808F00079
:100756007908F1007008C6004908CB007008CC0083
:10076600642107160230FC004B30FD00FD0BB92B4F
:10077600FC0BB92BEF3087054208CB004508CC00AF
:10078600642187160230FC004B30FD00FD0BC92B9F
:10079600FC0BC92BDF3087054108CB004408CC0091
:1007A600642107170230FC004B30FD00FD0BD92BEE
:0A07B600FC0BD92BBF3087050800AB
:1007C000E83083120313F4000330F500F601F7015B
:1007D0002E08F0002F08F1003008F2003108F30075
:1007E000A3217008B9007108BA007208BB00730831
:1007F000BC002A080319122C391C052CEF30870580
:10080000DF308705BF308705112C2808BD00290877
:10081000BE002508BF002608C0001B230716871648
:1008200007171B2C2808BD002908BE002508BF009B
:080830002608C0001B2308008C
:100838004D3083120313920083168C14C0308B0042
:10084800920183128C108B170B1783168C140800D7
:0C0858008B178316031301170B16080002
:1008640001308312031390000C10FC308F001830F9
:0C0874008E0083160C14C0308B000800AE
:10088000831203130808B400B40CB413B40CB413EB
:10089000B40CB413B40CB4130F30B4052E08B50067
:1008A0002F08B6003008B7003108B8002E08F10054
:1008B0002F08F2003008F3003108F4003508F10287
:1008C0003608031C360FF2023708031C370FF302F9
:1008D0003808031C380FF4027408003C031D7A2CFE
:1008E0007308003C031D7A2C7208003C031D7A2C0F
:1008F0007108143C031C7E2CE023562C0808F000E1
:10090000F00CF013F00CF013F00CF013F00CF013EB
:100910000F307005F100340871060319902CB401F2
:060920003408F00008009D
:060926001C242C24080033
:10092C008316031788018901831287138813831692
:10093C000313870183128701831686100910851112
:0E094C0086100910081688160817881708006C
:10095A005D218A110A128000840AAC0A0319AD0AC1
:08096A00F003031DAD2C080091
:1009720083120313A501A601A701A801A901013051
:10098200AA0096249324322440247008AB007008F5
:10099200A800A9017008A500A6017008023A031D6B
:0A09A200D32CAA09E023C52CD52CA4
:1009AC003F3406345B344F3466346D347D34073455
:0409BC007F346F34E1
:04400E00F22F000786
:00000001FF
