:020000001F2BB4
:10000800FF00030E8301BA000A08BB008A017008CA
:10001800A3007108A2007208A1007308A0000C1CBC
:1000280031280C10FC308F0018308E003408F00096
:100038003508F1003608F2003708F300F00A031912
:10004800F10A0319F20A0319F30A7008B4007108D7
:10005800B5007208B6007308B7000B080239F00043
:100068000030F1000030F2000030F3000030F105FC
:10007800F205F305700871047204730403194B2820
:1000880086141215B20A0319B30AFD308B050C0841
:100098000239F0000030F1000030F2000030F300C7
:1000A8000030F105F205F305700871047204730459
:1000B80003196B28FD3086052508831692008312E4
:1000C800B00A0319B10AFB309205FD308C052308EC
:1000D800F0002208F1002108F2002008F3003B0894
:0C00E8008A003A0E8300FF0E7F0E090014
:1000F400831203132230FC00F801F901FA01FB0119
:10010400FC030319B0280310FB0CFA0CF90CF80CCF
:10011400F30CF20CF10CF00C031C8228FC03031901
:10012400A2287408F80775080318750FF9077608EC
:100134000318760FFA0777080318770FFB0786284A
:100144007408F80775080318750FF907760803187B
:0E015400760FFA0777080318770FFB070800ED
:100162008312031387150000F7308705000008008B
:10017200831203135E08F000F101F201F301023071
:10018200F4000830F5000030F6000030F7007A2065
:1001920010307005DF0021307105E0000230720579
:1001A200E10000307305E2005E08F000F101F201A7
:1001B200F3012030F4008030F5000030F60000300A
:1001C200F7007A204030F0058430F1050830F2055E
:1001D2000030F3055F08F0046008F1046108F204DE
:1001E2006208F3040130F4000130F5000130F6003A
:1001F2000030F7007A207208F4007308F500F60167
:08020200F7017408F000080088
:10020A008312031307150000FB308705000008005E
:10021A0083120313DB010030DC000030DD005908D3
:10022A00DE00B9207008D9005A08DE00B92070082B
:10023A00DA005908DC00DD015C08DD00DC01700829
:10024A00DC040030DD04DB015B080F3C031C55298C
:10025A005B08F4000130F0000030F1000030F200D9
:10026A000030F300740803194129F00DF10DF20D65
:10027A00F30D7010FF3E38295C08F0055D08F105A2
:10028A000030F205F305700871047204730403194F
:10029A00502987145229FD3087050521DB0A2929AF
:0402AA00B120080077
:1002AE0083120313F801F9011030FC00710DF80DE3
:1002BE00F90D7408F8027508031C750FF90203187E
:1002CE006F297408F80775080318750FF9070310DE
:0A02DE00F00DF10DFC0B5D29080086
:1002E800831203135708263E84000008D9005808D3
:0C02F800263E84000008DA000D210800FA
:100304000A3083120313F4000030F5004908F000AA
:100314004A08F10057217808F0007908F1007008C4
:10032400CD000A30F4000030F5004908F0004A0816
:10033400F10057217008D3007108D4005308C90094
:100344005408CA000A30F4000030F5005308F000E5
:100354005408F10057217808F0007908F10070087A
:10036400CE000A30F4000030F5005308F0005408C1
:10037400F10057217008C9007108CA000A30F4005E
:100384000030F50057217808F0007908F100700872
:10039400D5007108D6005508CF000A30F4000030AB
:1003A400F5004B08F0004C08F10057217808F000E4
:1003B4007908F1007008D0000A30F4000030F5002C
:1003C4004B08F0004C08F10057217008D300710865
:1003D400D4005308CB005408CC000A30F400003099
:1003E400F5005308F0005408F10057217808F00094
:1003F4007908F1007008D1000A30F4000030F500EB
:100404005308F0005408F10057217008CB0071081C
:10041400CC000A30F4000030F50057217808F000D1
:100424007908F1007008D2005508D7007008D80088
:10043400742107160230FC004B30FD00FD0B202A0E
:10044400FC0B202AEF3087054E08D7005108D8004E
:10045400742187160230FC004B30FD00FD0B302A5E
:10046400FC0B302ADF3087054D08D7005008D80030
:10047400742107170230FC004B30FD00FD0B402AAD
:0A048400FC0B402ABF30870508007A
:10048E00FC30831203131205F00049087004920029
:02049E00080054
:1004A0008730831203131205F2004908F000F00DA3
:1004B0007010F00D7010F00D701070087204920042
:0204C000080032
:0C04C2008B178316031301170B1608009C
:1004CE008312031312150330C90047220130C900ED
:1004DE0050220330C90047228316920183128C10DA
:0A04EE008B170B1783168C140800FF
:0E04F8008312031339088A00380882000800B6
:10050600831203133008C9003108CA003208CB0031
:080516003308CC00822108002B
:0E051E00831203134808840047088000080079
:0E052C008312031339088A0038088200080081
:08053A008316031306100800EC
:080542008316031306140800E0
:10054A000030831203133C020318AD2ABE01B82AF5
:10055A003C08E63C0318B42AE630BF00B62A3C0839
:10056A00BF003F08BE003E08BC003E08C7003D0869
:06057A00C8008F220800FA
:1005800001308312031390000C10FC308F001830E0
:0C0590008E0083160C14C0308B00080095
:10059C008316031788018901831287138813831626
:0E05AC0003138701831287018316861008004F
:1005BA0096228A110A128000840AB80A0319B90A13
:0805CA00F003031DDD2A080007
:1005D200831203133408C3003508C4003608C5006B
:1005E2003708C6003C08C3073D0803183D0FC4077F
:1005F2003E0803183E0FC5073F0803183F0FC60702
:100602008312031346083702031D112B45083602D5
:10061200031D112B44083502031D112B430834021C
:1006220003181B2B4008B8004108B9007C228A112C
:060632000A12012B080072
:06063800672261220800A8
:10063E006223CE221C23C022031383122408BC0083
:10064E002530BD00A5229D22F4308312BC0001305E
:10065E00BD00BE01BF018330C0000230C1000030BA
:10066E00C2000030E922A122F4308312BC00013016
:10067E00BD00BE01BF018330C0000230C10000309A
:0A068E00C2000030E922232B4B2BA1
:1006C40024308400103083120313F0005130B8003A
:0806D4000330B900DD2208002B
:0206A2006434BE
:0206A400003420
:1006A600C034F934A434B034993492348234F834F2
:0406B60080349034C8
:0406BA0000340034D4
:0406BE0000340034D0
:04400E00F22F000786
:00000001FF
