:02000000742A60
:10000800FF00030E8301BB000A08BA008A017008CA
:10001800A3007108A2007208A1007308A0000C1CBC
:1000280031280C10FC308F0018308E003208F00098
:100038003308F1003408F2003508F300F00A031918
:10004800F10A0319F20A0319F30A7008B2007108D9
:10005800B3007208B4007308B5002308F000220842
:10006800F1002108F2002008F3003A088A003B0E4C
:080078008300FF0E7F0E09005A
:10008000831203132230FC00F801F901FA01FB018D
:10009000FC03031976280310FB0CFA0CF90CF80C7E
:1000A000F30CF20CF10CF00C031C4828FC030319B0
:1000B00068287408F80775080318750FF90776089B
:1000C0000318760FFA0777080318770FFB074C28F9
:1000D0007408F80775080318750FF90776080318F0
:0E00E000760FFA0777080318770FFB07080062
:1000EE008312031387150000F73087050000080000
:1000FE008312031307150000FB308705000008006C
:10010E00831203135C08F000F101F201F3010230D7
:10011E00F4000830F5000030F6000030F700402003
:10012E0010307005DD0021307105DE0002307205E1
:10013E00DF0000307305E0005C08F000F101F20111
:10014E00F3012030F4008030F5000030F60000306E
:10015E00F70040204030F0058430F1050830F205FC
:10016E000030F3055D08F0045E08F1045F08F20448
:10017E006008F3040130F4000130F5000130F600A0
:10018E000030F70040207208F4007308F500F60105
:08019E00F7017408F0000800ED
:1001A60083120313D9010030DA000030DB00570850
:1001B600DC0087207008D7005808DC00872070080C
:1001C600D8005708DA00DB015A08DB00DA017008AC
:1001D600DA040030DB04D90159080F3C031C1B2943
:1001E6005908F4000130F0000030F1000030F20050
:1001F6000030F300740803190729F00DF10DF20D14
:10020600F30D7010FF3EFE285A08F0055B08F10555
:100216000030F205F30570087104720473040319C3
:10022600162987141829FD3087057F20D90AEF285B
:040236007720080025
:10023A00831203135508283E84000008D700560885
:0C024A00283E84000008D800D3200800E3
:1002560083120313F801F9011030FC00710DF80D3B
:10026600F90D7408F8027508031C750FF9020318D6
:1002760043297408F80775080318750FF907031062
:0A028600F00DF10DFC0B312908000A
:100290000A3083120313F4000030F5004708F00021
:1002A0004808F1002B217808F0007908F100700867
:1002B000CB000A30F4000030F5004708F000480891
:1002C000F1002B217008D1007108D2005108C7003D
:1002D0005208C8000A30F4000030F5005108F00060
:1002E0005208F1002B217808F0007908F10070081D
:1002F000CC000A30F4000030F5005108F00052083C
:10030000F1002B217008C7007108C8000A30F40002
:100310000030F5002B217808F0007908F100700812
:10032000D3007108D4005308CD000A30F400003027
:10033000F5004908F0004A08F1002B217808F00088
:100340007908F1007008CE000A30F4000030F500A2
:100350004908F0004A08F1002B217008D10071080B
:10036000D2005108C9005208CA000A30F400003017
:10037000F5005108F0005208F1002B217808F00038
:100380007908F1007008CF000A30F4000030F50061
:100390005108F0005208F1002B217008C9007108C3
:1003A000CA000A30F4000030F5002B217808F00074
:1003B0007908F1007008D0005308D5007008D60005
:1003C0001D2107160230FC004B30FD00FD0BE62915
:1003D000FC0BE629EF3087054C08D5004F08D60006
:1003E0001D2187160230FC004B30FD00FD0BF62965
:1003F000FC0BF629DF3087054B08D5004E08D600E8
:100400001D2107170230FC004B30FD00FD0B062AB2
:0A041000FC0B062ABF308705080028
:0E041A008312031339088A0038088200080094
:10042800831203133608C7003708C8002408C90018
:080438002508CA004821080054
:0E0440008312031339088A003808820008006E
:10044E0001308312031390000C10FC308F00183013
:0C045E008E0083160C14C0308B000800C8
:10046A00831203133208C3003308C4003408C500DA
:10047A003508C6003C08C3073D0803183D0FC407EA
:10048A003E0803183E0FC5073F0803183F0FC6076B
:10049A008312031346083502031D5D2A45083402F8
:1004AA00031D5D2A44083302031D5D2A43083202F4
:1004BA000318672A4008B8004108B9000D228A11BA
:0604CA000A124D2A080091
:1004D00020228A110A128000840AB80A0319B90A74
:0804E000F003031D682A080067
:1004E800C222831603178801890183128713881390
:1004F8008316031387018312870127228312A6011B
:10050800A70103302702031D8B2AE73026020318B0
:10051800A62AB60A0319B70AA40A0319A50AC830F5
:10052800BC00BD01BE01BF011430C0000230C100D3
:100538000030C2000030352283120313A60A0319C3
:08054800A70A852A822AA72ACE
:1005840024308400143083120313F000AD30B8001B
:080594000230B90068220800E2
:04055A0064340134D0
:04055E000034003431
:10056200C034F934A434B034993492348234F83437
:04057200803490340D
:080576000034003400340034AD
:04057E00F23400341F
:04400E00F22F000786
:00000001FF
