:02000000312BA2
:10000800FF00030E8301B3000A08B2008A017008DA
:10001800A3007108A2007208A1007308A0000C1CBC
:1000280031280C10FC308F0018308E002E08F0009C
:100038002F08F1003008F2003108F300F00A031924
:10004800F10A0319F20A0319F30A7008AE007108DD
:10005800AF007208B0007308B1000B080239F00055
:100068000030F1000030F2000030F3000030F105FC
:10007800F205F30570087104720473040319492822
:10008800F73085051215FD308B050C080239F00094
:100098000030F1000030F2000030F3000030F105CC
:1000A800F205F305700871047204730403196528D6
:1000B8008515250883169200FB3083129205FD30C2
:1000C8008C052308F0002208F1002108F20020081E
:1000D800F30032088A00330E8300FF0E7F0E0900FA
:1000E800831203132230FC00F801F901FA01FB0125
:1000F800FC030319AA280310FB0CFA0CF90CF80CE2
:10010800F30CF20CF10CF00C031C7C28FC03031913
:100118009C287408F80775080318750FF9077608FE
:100128000318760FFA0777080318770FFB0780285C
:100138007408F80775080318750FF9077608031887
:0E014800760FFA0777080318770FFB070800F9
:100156008312031387150000F73087050000080097
:10016600831203135008F000F101F201F30102308B
:10017600F4000830F5000030F6000030F700742077
:1001860010307005D10021307105D20002307205A1
:10019600D30000307305D4005008F000F101F201DD
:1001A600F3012030F4008030F5000030F600003016
:1001B600F70074204030F0058430F1050830F20570
:1001C6000030F3055108F0045208F1045308F20414
:1001D6005408F3040130F4000130F5000130F60054
:1001E6000030F70074207208F4007308F500F60179
:0801F600F7017408F000080095
:1001FE008312031307150000FB308705000008006B
:10020E0083120313CD010030CE000030CF004B0817
:10021E00D000B3207008CB004C08D000B32070087B
:10022E00CC004B08CE00CF014E08CF00CE01700897
:10023E00CE040030CF04CD014D080F3C031C4F29D6
:10024E004D08F4000130F0000030F1000030F200F3
:10025E000030F300740803193B29F00DF10DF20D77
:10026E00F30D7010FF3E32294E08F0054F08F105D0
:10027E000030F205F305700871047204730403195B
:10028E004A2987144C29FD308705FF20CD0A2329E2
:04029E00AB20080089
:0E02A200831203132D088A002C088200080026
:1002B00083120313F801F9011030FC00710DF80DE1
:1002C000F90D7408F8027508031C750FF90203187C
:1002D00070297408F80775080318750FF9070310DB
:0A02E000F00DF10DFC0B5E29080083
:1002EA00831203134908933EF00003300318013EBA
:1002FA00F1007008AC007108AD0051218A110A1290
:10030A00CB004A08933EF00003300318013EF10087
:10031A007008AC007108AD0051218A110A12CC0094
:04032A00072108009F
:10032E000A3083120313F4000030F5003B08F0008E
:10033E003C08F10058217808F0007908F1007008A7
:10034E00BF000A30F4000030F5003B08F0003C0816
:10035E00F10058217008C5007108C6004508BB00A1
:10036E004608BC000A30F4000030F5004508F000E5
:10037E004608F10058217808F0007908F10070085D
:10038E00C0000A30F4000030F5004508F0004608C1
:10039E00F10058217008BB007108BC000A30F4004F
:1003AE000030F50058217808F0007908F100700847
:1003BE00C7007108C8004708C1000A30F4000030B9
:1003CE00F5003D08F0003E08F10058217808F000D5
:1003DE007908F1007008C2000A30F4000030F50010
:1003EE003D08F0003E08F10058217008C500710864
:1003FE00C6004508BD004608BE000A30F4000030B5
:10040E00F5004508F0004608F10058217808F00084
:10041E007908F1007008C3000A30F4000030F500CE
:10042E004508F0004608F10058217008BD0071081B
:10043E00BE000A30F4000030F50058217808F000B4
:10044E007908F1007008C4004708C9007008CA0096
:10045E00752107160230FC004B30FD00FD0B352ACE
:10046E00FC0B352AEF3087054008C9004308CA0047
:10047E00752187160230FC004B30FD00FD0B452A1E
:10048E00FC0B452ADF3087053F08C9004208CA0029
:10049E00752107170230FC004B30FD00FD0B552A6D
:0A04AE00FC0B552ABF30870508003B
:0804B8008316031385150800EB
:1004C0004D3083120313920083168C14C0308B00BE
:1004D000920183128C108B170B1783168C14080053
:0C04E0008B178316031301170B1608007E
:0E04EC00831203133A088400390880000800C8
:1004FA00831203132708BB002808BC002908BD0083
:08050A002A08BE009721080039
:10051200831203130808B400B40CB413B40CB4135C
:10052200B40CB413B40CB4130F30B4052E08B500D8
:100532002F08B6003008B7003108B8002E08F100C5
:100542002F08F2003008F3003108F4003508F102F8
:100552003608031C360FF2023708031C370FF3026A
:100562003808031C380FF4027408003C031DC32A28
:100572007308003C031DC32A7208003C031DC32AF2
:100582007108143C031CC72A7D229F2A0808F00028
:10059200F00CF013F00CF013F00CF013F00CF0135D
:1005A2000F307005F100340871060319D92AB4011D
:0605B2003408F00008000F
:1005B80001308312031390000C10FC308F001830A8
:0C05C8008E0083160C14C0308B0008005D
:1005D40001308312031334020318F32A0130B600E6
:1005E400FE2A3408DC3C0318FA2ADC30B700FC2A63
:1005F4003408B7003708B6003608B4003608B90026
:080604003508BA007622080057
:08060C00831603138511080099
:08061400602270225C22080044
:10061C0051218A110A128000840AAC0A0319AD0A0E
:08062C00F003031D0E2B080072
:10063400831603178801890183128713881383168D
:10064400031387018312870183168610091085110D
:0E065400861009100816881608178817080067
:10066200143083120313A400A501A601A701A80157
:10067200A901AA01AB011A230A23DC225C228922E6
:100682007008013A031D4E2B0130A7000030A8006C
:100692002B080130031D0030AB0089227008023A9A
:1006A200031D5C2B0230A7000030A8002608013091
:1006B200031D0030A60089227008043A031D672B2F
:1006C2000330A7000030A8000A30A407892270086E
:1006D200083A031D722B0430A7000030A8000A302C
:1006E200A4022B080319772B0623782B5C22831292
:1006F200260803197E2B0914802BFE308905240855
:10070200B4002530B500EA222408A900AA0127086E
:10071200BB002808BC002908BD002A08BE0097219A
:04072200402B922BAB
:100726003F3406345B344F3466346D347D340734DD
:040736007F346F3469
:04400E00F22F000786
:00000001FF
