:02000000312BA2
:10000800FF00030E8301AF000A08B0008A017008E0
:10001800A3007108A2007208A1007308A0000C1CBC
:1000280031280C10FC308F0018308E002908F000A1
:100038002A08F1002B08F2002C08F300F00A031933
:10004800F10A0319F20A0319F30A7008A9007108E2
:10005800AA007208AB007308AC000B080239F00064
:100068000030F1000030F2000030F3000030F105FC
:10007800F205F30570087104720473040319492822
:10008800F73085051215FD308B050C080239F00094
:100098000030F1000030F2000030F3000030F105CC
:1000A800F205F305700871047204730403196528D6
:1000B8008515260883169200FB3083129205FD30C1
:1000C8008C052308F0002208F1002108F20020081E
:1000D800F30030088A002F0E8300FF0E7F0E090000
:1000E800831203132230FC00F801F901FA01FB0125
:1000F800FC030319AA280310FB0CFA0CF90CF80CE2
:10010800F30CF20CF10CF00C031C7C28FC03031913
:100118009C287408F80775080318750FF9077608FE
:100128000318760FFA0777080318770FFB0780285C
:100138007408F80775080318750FF9077608031887
:0E014800760FFA0777080318770FFB070800F9
:100156008312031387150000F73087050000080097
:10016600831203134D08F000F101F201F30102308E
:10017600F4000830F5000030F6000030F700742077
:1001860010307005CE0021307105CF0002307205A7
:10019600D00000307305D1004D08F000F101F201E6
:1001A600F3012030F4008030F5000030F600003016
:1001B600F70074204030F0058430F1050830F20570
:1001C6000030F3054E08F0044F08F1045008F2041D
:1001D6005108F3040130F4000130F5000130F60057
:1001E6000030F70074207208F4007308F500F60179
:0801F600F7017408F000080095
:1001FE008312031307150000FB308705000008006B
:10020E0083120313CA010030CB000030CC00480823
:10021E00CD00B3207008C8004908CD00B320700887
:10022E00C9004808CB00CC014B08CC00CB017008AC
:10023E00CB040030CC04CA014A080F3C031C4F29E2
:10024E004A08F4000130F0000030F1000030F200F6
:10025E000030F300740803193B29F00DF10DF20D77
:10026E00F30D7010FF3E32294B08F0054C08F105D6
:10027E000030F205F305700871047204730403195B
:10028E004A2987144C29FD308705FF20CA0A2329E5
:04029E00AB20080089
:0E02A200831203132E088A002D088200080024
:1002B00083120313F801F9011030FC00710DF80DE1
:1002C000F90D7408F8027508031C750FF90203187C
:1002D00070297408F80775080318750FF9070310DB
:0A02E000F00DF10DFC0B5E29080083
:1002EA00831203134608683EF00003300318013EE8
:1002FA00F1007008AD007108AE0051218A110A128E
:10030A00C8004708683EF00003300318013EF100B8
:10031A007008AD007108AE0051218A110A12C90095
:04032A00072108009F
:10032E000A3083120313F4000030F5003808F00091
:10033E003908F10058217808F0007908F1007008AA
:10034E00BC000A30F4000030F5003808F00039081F
:10035E00F10058217008C2007108C3004208B800AD
:10036E004308B9000A30F4000030F5004208F000EE
:10037E004308F10058217808F0007908F100700860
:10038E00BD000A30F4000030F5004208F0004308CA
:10039E00F10058217008B8007108B9000A30F40055
:1003AE000030F50058217808F0007908F100700847
:1003BE00C4007108C5004408BE000A30F4000030C5
:1003CE00F5003A08F0003B08F10058217808F000DB
:1003DE007908F1007008BF000A30F4000030F50013
:1003EE003A08F0003B08F10058217008C20071086D
:1003FE00C3004208BA004308BB000A30F4000030C4
:10040E00F5004208F0004308F10058217808F0008A
:10041E007908F1007008C0000A30F4000030F500D1
:10042E004208F0004308F10058217008BA00710824
:10043E00BB000A30F4000030F50058217808F000B7
:10044E007908F1007008C1004408C6007008C700A2
:10045E00752107160230FC004B30FD00FD0B352ACE
:10046E00FC0B352AEF3087053D08C6004008C70053
:10047E00752187160230FC004B30FD00FD0B452A1E
:10048E00FC0B452ADF3087053C08C6003F08C70035
:10049E00752107170230FC004B30FD00FD0B552A6D
:0A04AE00FC0B552ABF30870508003B
:0C04B8008B178316031301170B160800A6
:0804C4008316031385110800E3
:1004CC004D3083120313920083168C14C0308B00B2
:1004DC00920183128C108B170B1783168C14080047
:0E04EC008312031337088400360880000800CE
:1004FA00831203132708B8002808B9002408BA0091
:08050A002508BB009721080041
:10051200831203130808B100B10CB113B10CB1136B
:10052200B10CB113B10CB1130F30B1052908B200EF
:100532002A08B3002B08B4002C08B5002908F100E2
:100542002A08F2002B08F3002C08F4003208F1020A
:100552003308031C330FF2023408031C340FF30276
:100562003508031C350FF4027408003C031DC32A2E
:100572007308003C031DC32A7208003C031DC32AF2
:100582007108143C031CC72A7D229F2A0808F00028
:10059200F00CF013F00CF013F00CF013F00CF0135D
:1005A2000F307005F100310871060319D92AB10123
:0605B2003108F000080012
:1005B80001308312031390000C10FC308F001830A8
:0C05C8008E0083160C14C0308B0008005D
:1005D40001308312031331020318F32A0130B300EC
:1005E400FE2A3108DC3C0318FA2ADC30B400FC2A69
:1005F4003108B4003408B3003308B1003308B6003E
:080604003208B700762208005D
:08060C00831603138515080095
:08061400622266225C2208004C
:10061C0051218A110A128000840AAD0A0319AE0A0C
:08062C00F003031D0E2B080072
:10063400831603178801890183128713881383168D
:10064400031387018312870183168610091085110D
:0E065400861009100816881608178817080067
:1006620083120313A401A501A601A701A8011A235D
:100672000A23DC2289227008013A031D452B01302E
:10068200A7000030A800062389227008023A031D41
:100692004F2B0230A7000030A80062228922700886
:1006A200043A031D582B0330A7000030A80089220A
:1006B2007008083A031D612B0430A7000030A8001F
:0E06C2007B30B1002630B200EA223B2B672BC2
:1006D0003F3406345B344F3466346D347D34073434
:0406E0007F346F34C0
:04400E00F22F000786
:00000001FF
