:020000009A2A3A
:10000800FF00030E8301B8000A08B9008A017008CE
:10001800A3007108A2007208A1007308A0000C1CBC
:1000280031280C10FC308F0018308E003008F0009A
:100038003108F1003208F2003308F300F00A03191E
:10004800F10A0319F20A0319F30A7008B0007108DB
:10005800B1007208B2007308B3000B080239F0004F
:100068000030F1000030F2000030F3000030F105FC
:10007800F205F305700871047204730403194B2820
:1000880086141215A40A0319A50AFD308B050C085D
:100098000239F0000030F1000030F2000030F300C7
:1000A8000030F105F205F305700871047204730459
:1000B80003196728FD308605B40A0319B50AFB3011
:1000C8009205FD308C052308F0002208F100210874
:1000D800F2002008F30039088A00380E8300FF0E6A
:0400E8007F0E09007E
:1000EC00831203132230FC00F801F901FA01FB0121
:1000FC00FC030319AC280310FB0CFA0CF90CF80CDC
:10010C00F30CF20CF10CF00C031C7E28FC0303190D
:10011C009E287408F80775080318750FF9077608F8
:10012C000318760FFA0777080318770FFB07822856
:10013C007408F80775080318750FF9077608031883
:0E014C00760FFA0777080318770FFB070800F5
:10015A008312031307150000FB308705000008000F
:10016A008312031387150000F73087050000080083
:10017A00831203134F08F000F101F201F301023078
:10018A00F4000830F5000030F6000030F700762061
:10019A0010307005D00021307105D100023072058F
:1001AA00D20000307305D3004F08F000F101F201CC
:1001BA00F3012030F4008030F5000030F600003002
:1001CA00F70076204030F0058430F1050830F2055A
:1001DA000030F3055008F0045108F1045208F20403
:1001EA005308F3040130F4000130F5000130F60041
:1001FA000030F70076207208F4007308F500F60163
:08020A00F7017408F000080080
:1002120083120313CC010030CD000030CE004A0817
:10022200CF00BD207008CA004B08CF00BD20700867
:10023200CB004A08CD00CE014D08CE00CD0170089A
:10024200CD040030CE04CC014C080F3C031C5129D4
:100252004C08F4000130F0000030F1000030F200F0
:100262000030F300740803193D29F00DF10DF20D71
:10027200F30D7010FF3E34294D08F0054E08F105CC
:100282000030F205F3057008710472047304031957
:100292004C2987144E29FD308705AD20CC0A25292B
:0402A200B52008007B
:1002A6008730831203131205F2004808F000F00DA0
:1002B6007010F00D7010F00D70107008720492003E
:0202C60008002E
:0E02C8008312031337088A00360882000800EC
:1002D60083120313F801F9011030FC00710DF80DBB
:1002E600F90D7408F8027508031C750FF902031856
:1002F60083297408F80775080318750FF9070310A2
:0A030600F00DF10DFC0B7129080049
:10031000FC30831203131205F000480870049200A9
:020320000800D3
:10032200831203134808263E84000008CA004908C5
:0C033200263E84000008CB0009210800D2
:0C033E008B178316031301170B16080021
:10034A0001308312031390000C10FC308F00183018
:0C035A008E0083160C14C0308B000800CD
:100366000A3083120313F4000030F5003A08F00057
:100376003B08F1006B217808F0007908F10070085D
:10038600BE000A30F4000030F5003A08F0003B08E1
:10039600F1006B217008C4007108C5004408BA005A
:1003A6004508BB000A30F4000030F5004408F000B0
:1003B6004508F1006B217808F0007908F100700813
:1003C600BF000A30F4000030F5004408F00045088C
:1003D600F1006B217008BA007108BB000A30F40006
:1003E6000030F5006B217808F0007908F1007008FC
:1003F600C6007108C7004608C0000A30F400003085
:10040600F5003C08F0003D08F1006B217808F0008B
:100416007908F1007008C1000A30F4000030F500D8
:100426003C08F0003D08F1006B217008C40071081B
:10043600C5004408BC004508BD000A30F400003081
:10044600F5004408F0004508F1006B217808F0003B
:100456007908F1007008C2000A30F4000030F50097
:100466004408F0004508F1006B217008BC007108D3
:10047600BD000A30F4000030F5006B217808F0006A
:100486007908F1007008C3004608C8007008C90062
:10049600912107160230FC004B30FD00FD0B512A5E
:1004A600FC0B512AEF3087053F08C8004208C900F7
:1004B600912187160230FC004B30FD00FD0B612AAE
:1004C600FC0B612ADF3087053E08C8004108C900D9
:1004D600912107170230FC004B30FD00FD0B712AFD
:0A04E600FC0B712ABF3087050800E7
:1004F00064218A110A128000840AB60A0319B70A15
:08050000F003031D782A080036
:100508008312031312150330C80088210130C80074
:1005180053210330C80088210A30831692008312C1
:0C0528008C108B170B1783168C14080026
:10053400D022831603178801890183128713881335
:10054400831603138701831287018316861084227E
:10055400A5219F2183123408BA003508BB00240862
:0C056400BC002508BD00B321AC2AB72A5A
:1005A00024308400123083120313F000BD30B600F3
:0805B0000230B70078220800B8
:04057A000034003415
:10057E00C034F934A434B034993492348234F8341B
:04058E0080349034F1
:08059200003400340034003491
:04059A0000340034F5
:04400E00F22F000786
:00000001FF
