:02000000752A5F
:10000800FF00030E8301B9000A08B8008A017008CE
:10001800A3007108A2007208A1007308A0000C1CBC
:1000280031280C10FC308F0018308E003208F00098
:100038003308F1003408F2003508F300F00A031918
:10004800F10A0319F20A0319F30A7008B2007108D9
:10005800B3007208B4007308B5000B080239F00049
:100068000030F1000030F2000030F3000030F105FC
:10007800F205F305700871047204730403194B2820
:1000880086141215B00A0319B10AFD308B050C0845
:100098000239F0000030F1000030F2000030F300C7
:1000A8000030F105F205F305700871047204730459
:1000B80003196728FD308605AE0A0319AF0AFB301D
:1000C8009205FD308C052308F0002208F100210874
:1000D800F2002008F30038088A00390E8300FF0E6A
:0400E8007F0E09007E
:1000EC00831203132230FC00F801F901FA01FB0121
:1000FC00FC030319AC280310FB0CFA0CF90CF80CDC
:10010C00F30CF20CF10CF00C031C7E28FC0303190D
:10011C009E287408F80775080318750FF9077608F8
:10012C000318760FFA0777080318770FFB07822856
:10013C007408F80775080318750FF9077608031883
:0E014C00760FFA0777080318770FFB070800F5
:10015A008312031307150000FB308705000008000F
:10016A008312031387150000F73087050000080083
:10017A00831203134F08F000F101F201F301023078
:10018A00F4000830F5000030F6000030F700762061
:10019A0010307005D00021307105D100023072058F
:1001AA00D20000307305D3004F08F000F101F201CC
:1001BA00F3012030F4008030F5000030F600003002
:1001CA00F70076204030F0058430F1050830F2055A
:1001DA000030F3055008F0045108F1045208F20403
:1001EA005308F3040130F4000130F5000130F60041
:1001FA000030F70076207208F4007308F500F60163
:08020A00F7017408F000080080
:1002120083120313CC010030CD000030CE004A0817
:10022200CF00BD207008CA004B08CF00BD20700867
:10023200CB004A08CD00CE014D08CE00CD0170089A
:10024200CD040030CE04CC014C080F3C031C5129D4
:100252004C08F4000130F0000030F1000030F200F0
:100262000030F300740803193D29F00DF10DF20D71
:10027200F30D7010FF3E34294D08F0054E08F105CC
:100282000030F205F3057008710472047304031957
:100292004C2987144E29FD308705AD20CC0A25292B
:0402A200B52008007B
:0E02A6008312031337088A003608820008000E
:1002B400831203134808243E84000008CA00490836
:0C02C400243E84000008CB000921080043
:1002D00083120313F801F9011030FC00710DF80DC1
:1002E000F90D7408F8027508031C750FF90203185C
:1002F00080297408F80775080318750FF9070310AB
:0A030000F00DF10DFC0B6E29080052
:0C030A008B178316031301170B16080055
:1003160001308312031390000C10FC308F0018304C
:0C0326008E0083160C14C0308B00080001
:100332000A3083120313F4000030F5003A08F0008B
:100342003B08F10068217808F0007908F100700894
:10035200BE000A30F4000030F5003A08F0003B0815
:10036200F10068217008C4007108C5004408BA0091
:100372004508BB000A30F4000030F5004408F000E4
:100382004508F10068217808F0007908F10070084A
:10039200BF000A30F4000030F5004408F0004508C0
:1003A200F10068217008BA007108BB000A30F4003D
:1003B2000030F50068217808F0007908F100700833
:1003C200C6007108C7004608C0000A30F4000030B9
:1003D200F5003C08F0003D08F10068217808F000C3
:1003E2007908F1007008C1000A30F4000030F5000D
:1003F2003C08F0003D08F10068217008C400710853
:10040200C5004408BC004508BD000A30F4000030B5
:10041200F5004408F0004508F10068217808F00072
:100422007908F1007008C2000A30F4000030F500CB
:100432004408F0004508F10068217008BC0071080A
:10044200BD000A30F4000030F50068217808F000A1
:100452007908F1007008C3004608C8007008C90096
:100462005A2107160230FC004B30FD00FD0B372AE3
:10047200FC0B372AEF3087053F08C8004208C90045
:100482005A2187160230FC004B30FD00FD0B472A33
:10049200FC0B472ADF3087053E08C8004108C90027
:1004A2005A2107170230FC004B30FD00FD0B572A82
:0A04B200FC0B572ABF308705080035
:1004BC004530831203139200E730831692008C149C
:0604CC00C0308B000800A7
:1004D20053218A110A128000840AB60A0319B70A44
:0804E200F003031D692A080064
:1004EA00AA228316031788018901831287138813A6
:1004FA0083160313870183128701831686105E22EF
:10050A008B21852183122E08BA002F08BB003008E0
:0C051A00BC003108BD009921872A922AFC
:1005540024308400123083120313F0009830B60064
:080564000230B7006922080013
:10053000C034F934A434B034993492348234F83469
:04054000803490343F
:04054400003400344B
:040548000034003447
:08054C000034003400340034D7
:04400E00F22F000786
:00000001FF
