:020000000029D5
:10000800FF00030E8301AF000A08B0008A017008E0
:10001800A2007108A1007208A0000C1C2F280C1067
:10002800FC308F0018308E002908F0002A08F100F3
:100038002B08F2002C08F300F00A0319F10A03193F
:10004800F20A0319F30A7008A9007108AA007208D5
:10005800AB007308AC000B080239F0000030F10067
:100068000030F2000030F3000030F105F205F3052E
:100078007008710472047304031949288614121550
:10008800A30A0319A40AFD308B050C080239F000F5
:100098000030F1000030F2000030F3000030F105CC
:1000A800F205F305700871047204730403196928D2
:1000B800FD3086052808831692008312A50A0319C5
:1000C800A60AFB309205FD308C052208F0002108B5
:1000D800F1002008F20030088A002F0E8300FF0E7E
:0400E8007F0E09007E
:1000EC008730831203131205F2003708F000F00D6D
:1000FC007010F00D7010F00D7010700872049200FA
:02010C000800E9
:10010E00FC30831203131205F000370870049200BE
:02011E000800D7
:0E01200083120313360884003508800008009F
:0C012E008B178316031301170B16080033
:0E013A00831203132E088A002D08820008008D
:100148008312031312150330B70087200130B7005C
:1001580076200330B70087208316920183128C1013
:0A0168008B170B1783168C14080088
:1001720000308312031331020318C128B301CC28C3
:100182003108E63C0318C828E630B400CA28310812
:10019200B4003408B3003308B1003308B5003208A4
:0601A200B60090200800E9
:0601A800A42097200800CE
:1001AE0001308312031390000C10FC308F001830B6
:0C01BE008E0083160C14C0308B0008006B
:1001CA0083160317880189018312871388138316FC
:0E01DA00031387018312870183168610080025
:1001E8009D208A110A128000840AAD0A0319AE0AFA
:0801F800F003031DF4280800C8
:1002000083120313A301A401A501A6010130A700D5
:10021000A801E520D420D7208312A70A2708B1001F
:100220002830B200B9204130FC00EE30FD00FD0B5B
:0C0230001729FC0B172900000C291D29C0
:04400E00F22F000786
:00000001FF
